{
  "_format": "hh-sol-artifact-1",
  "contractName": "MyToken",
  "sourceName": "contracts/MyToken.sol",
  "abi": [
    {
      "inputs": [
        {
          "internalType": "address",
          "name": "_sub",
          "type": "address"
        },
        {
          "internalType": "address",
          "name": "_superUsers",
          "type": "address"
        },
        {
          "internalType": "address",
          "name": "_uniqueUsers",
          "type": "address"
        }
      ],
      "stateMutability": "nonpayable",
      "type": "constructor"
    },
    {
      "anonymous": false,
      "inputs": [
        {
          "indexed": true,
          "internalType": "address",
          "name": "to_",
          "type": "address"
        },
        {
          "indexed": true,
          "internalType": "uint256",
          "name": "token_id_",
          "type": "uint256"
        }
      ],
      "name": "Minted",
      "type": "event"
    },
    {
      "anonymous": false,
      "inputs": [
        {
          "indexed": true,
          "internalType": "address",
          "name": "from_",
          "type": "address"
        },
        {
          "indexed": true,
          "internalType": "address",
          "name": "to_",
          "type": "address"
        },
        {
          "indexed": true,
          "internalType": "uint256",
          "name": "token_id_",
          "type": "uint256"
        }
      ],
      "name": "Transfered",
      "type": "event"
    },
    {
      "inputs": [
        {
          "internalType": "uint256",
          "name": "token_id_",
          "type": "uint256"
        }
      ],
      "name": "burn",
      "outputs": [],
      "stateMutability": "nonpayable",
      "type": "function"
    },
    {
      "inputs": [
        {
          "internalType": "uint256",
          "name": "token_id",
          "type": "uint256"
        }
      ],
      "name": "getAchievement",
      "outputs": [
        {
          "components": [
            {
              "internalType": "uint256",
              "name": "id",
              "type": "uint256"
            },
            {
              "internalType": "string",
              "name": "name",
              "type": "string"
            },
            {
              "internalType": "string",
              "name": "description",
              "type": "string"
            },
            {
              "internalType": "string",
              "name": "baseURI",
              "type": "string"
            },
            {
              "internalType": "bool",
              "name": "is_private",
              "type": "bool"
            }
          ],
          "internalType": "struct MyToken.Achievement",
          "name": "",
          "type": "tuple"
        }
      ],
      "stateMutability": "view",
      "type": "function"
    },
    {
      "inputs": [
        {
          "internalType": "address",
          "name": "account_",
          "type": "address"
        }
      ],
      "name": "getAllAchievements",
      "outputs": [
        {
          "components": [
            {
              "internalType": "uint256",
              "name": "id",
              "type": "uint256"
            },
            {
              "internalType": "string",
              "name": "name",
              "type": "string"
            },
            {
              "internalType": "string",
              "name": "description",
              "type": "string"
            },
            {
              "internalType": "string",
              "name": "baseURI",
              "type": "string"
            },
            {
              "internalType": "bool",
              "name": "is_private",
              "type": "bool"
            }
          ],
          "internalType": "struct MyToken.Achievement[]",
          "name": "",
          "type": "tuple[]"
        }
      ],
      "stateMutability": "view",
      "type": "function"
    },
    {
      "inputs": [
        {
          "internalType": "uint256",
          "name": "token_id",
          "type": "uint256"
        }
      ],
      "name": "getOwner",
      "outputs": [
        {
          "internalType": "address",
          "name": "",
          "type": "address"
        }
      ],
      "stateMutability": "view",
      "type": "function"
    },
    {
      "inputs": [
        {
          "internalType": "uint256",
          "name": "token_id",
          "type": "uint256"
        }
      ],
      "name": "isOwner",
      "outputs": [
        {
          "internalType": "bool",
          "name": "",
          "type": "bool"
        }
      ],
      "stateMutability": "view",
      "type": "function"
    },
    {
      "inputs": [
        {
          "internalType": "uint256",
          "name": "token_id",
          "type": "uint256"
        },
        {
          "internalType": "address",
          "name": "candidate_",
          "type": "address"
        }
      ],
      "name": "isOwner",
      "outputs": [
        {
          "internalType": "bool",
          "name": "",
          "type": "bool"
        }
      ],
      "stateMutability": "view",
      "type": "function"
    },
    {
      "inputs": [
        {
          "internalType": "string",
          "name": "name_",
          "type": "string"
        },
        {
          "internalType": "string",
          "name": "description_",
          "type": "string"
        },
        {
          "internalType": "string",
          "name": "baseURI_",
          "type": "string"
        },
        {
          "internalType": "bool",
          "name": "is_private",
          "type": "bool"
        },
        {
          "internalType": "address",
          "name": "to_",
          "type": "address"
        }
      ],
      "name": "mint",
      "outputs": [],
      "stateMutability": "nonpayable",
      "type": "function"
    },
    {
      "inputs": [
        {
          "internalType": "uint256",
          "name": "token_id_",
          "type": "uint256"
        },
        {
          "internalType": "address",
          "name": "to_",
          "type": "address"
        }
      ],
      "name": "transfer",
      "outputs": [],
      "stateMutability": "nonpayable",
      "type": "function"
    }
  ],
  "bytecode": "0x608060405260006003553480156200001657600080fd5b5060405162001d9e38038062001d9e83398181016040528101906200003c919062000171565b826000806101000a81548173ffffffffffffffffffffffffffffffffffffffff021916908373ffffffffffffffffffffffffffffffffffffffff16021790555081600160006101000a81548173ffffffffffffffffffffffffffffffffffffffff021916908373ffffffffffffffffffffffffffffffffffffffff16021790555080600260006101000a81548173ffffffffffffffffffffffffffffffffffffffff021916908373ffffffffffffffffffffffffffffffffffffffff160217905550505050620001cd565b600080fd5b600073ffffffffffffffffffffffffffffffffffffffff82169050919050565b600062000139826200010c565b9050919050565b6200014b816200012c565b81146200015757600080fd5b50565b6000815190506200016b8162000140565b92915050565b6000806000606084860312156200018d576200018c62000107565b5b60006200019d868287016200015a565b9350506020620001b0868287016200015a565b9250506040620001c3868287016200015a565b9150509250925092565b611bc180620001dd6000396000f3fe608060405234801561001057600080fd5b50600436106100885760003560e01c8063b7760c8f1161005b578063b7760c8f14610139578063c41a360a14610155578063ee4d50e114610185578063f2ccc543146101a157610088565b8063365ca84d1461008d57806339c7639c146100bd57806342966c68146100ed5780635a5d096c14610109575b600080fd5b6100a760048036038101906100a29190610f16565b6101d1565b6040516100b4919061114d565b60405180910390f35b6100d760048036038101906100d2919061119b565b6104cc565b6040516100e491906111d7565b60405180910390f35b6101076004803603810190610102919061119b565b610537565b005b610123600480360381019061011e91906111f2565b610545565b60405161013091906111d7565b60405180910390f35b610153600480360381019061014e91906111f2565b6105b1565b005b61016f600480360381019061016a919061119b565b6106ab565b60405161017c9190611241565b60405180910390f35b61019f600480360381019061019a91906113bd565b6106e8565b005b6101bb60048036038101906101b6919061119b565b610a91565b6040516101c89190611510565b60405180910390f35b60606000805b6003548111610212576101ea8185610545565b156101ff576001826101fc9190611561565b91505b808061020a90611595565b9150506101d7565b5060008167ffffffffffffffff81111561022f5761022e611266565b5b60405190808252806020026020018201604052801561026857816020015b610255610e73565b81526020019060019003908161024d5790505b5090506000805b60035481116104c0576102828187610545565b156104ad57600460008281526020019081526020016000206040518060a0016040529081600082015481526020016001820180546102bf9061160c565b80601f01602080910402602001604051908101604052809291908181526020018280546102eb9061160c565b80156103385780601f1061030d57610100808354040283529160200191610338565b820191906000526020600020905b81548152906001019060200180831161031b57829003601f168201915b505050505081526020016002820180546103519061160c565b80601f016020809104026020016040519081016040528092919081815260200182805461037d9061160c565b80156103ca5780601f1061039f576101008083540402835291602001916103ca565b820191906000526020600020905b8154815290600101906020018083116103ad57829003601f168201915b505050505081526020016003820180546103e39061160c565b80601f016020809104026020016040519081016040528092919081815260200182805461040f9061160c565b801561045c5780601f106104315761010080835404028352916020019161045c565b820191906000526020600020905b81548152906001019060200180831161043f57829003601f168201915b505050505081526020016004820160009054906101000a900460ff1615151515815250508383815181106104935761049261163d565b5b602002602001018190525081806104a990611595565b9250505b80806104b890611595565b91505061026f565b50819350505050919050565b60003373ffffffffffffffffffffffffffffffffffffffff166005600084815260200190815260200160002060009054906101000a900473ffffffffffffffffffffffffffffffffffffffff1673ffffffffffffffffffffffffffffffffffffffff16149050919050565b6105428160006105b1565b50565b60008173ffffffffffffffffffffffffffffffffffffffff166005600085815260200190815260200160002060009054906101000a900473ffffffffffffffffffffffffffffffffffffffff1673ffffffffffffffffffffffffffffffffffffffff1614905092915050565b816003548111156105f7576040517f08c379a00000000000000000000000000000000000000000000000000000000081526004016105ee906116c9565b60405180910390fd5b82338073ffffffffffffffffffffffffffffffffffffffff166005600084815260200190815260200160002060009054906101000a900473ffffffffffffffffffffffffffffffffffffffff1673ffffffffffffffffffffffffffffffffffffffff161461069a576040517f08c379a000000000000000000000000000000000000000000000000000000000815260040161069190611735565b60405180910390fd5b6106a48585610c99565b5050505050565b60006005600083815260200190815260200160002060009054906101000a900473ffffffffffffffffffffffffffffffffffffffff169050919050565b33600160009054906101000a900473ffffffffffffffffffffffffffffffffffffffff1673ffffffffffffffffffffffffffffffffffffffff1663cd784d1b826040518263ffffffff1660e01b81526004016107449190611241565b602060405180830381865afa158015610761573d6000803e3d6000fd5b505050506040513d601f19601f82011682018060405250810190610785919061176a565b6109aa576000600260009054906101000a900473ffffffffffffffffffffffffffffffffffffffff1673ffffffffffffffffffffffffffffffffffffffff1663e178bcdc6040518163ffffffff1660e01b8152600401602060405180830381865afa1580156107f8573d6000803e3d6000fd5b505050506040513d601f19601f8201168201806040525081019061081c91906117ac565b11801561096a5750600f600260009054906101000a900473ffffffffffffffffffffffffffffffffffffffff1673ffffffffffffffffffffffffffffffffffffffff1663e178bcdc6040518163ffffffff1660e01b8152600401602060405180830381865afa158015610893573d6000803e3d6000fd5b505050506040513d601f19601f820116820180604052508101906108b791906117ac565b606460008054906101000a900473ffffffffffffffffffffffffffffffffffffffff1673ffffffffffffffffffffffffffffffffffffffff16639cb18b9e856040518263ffffffff1660e01b81526004016109129190611241565b602060405180830381865afa15801561092f573d6000803e3d6000fd5b505050506040513d601f19601f8201168201806040525081019061095391906117ac565b61095d91906117d9565b610967919061184a565b10155b6109a9576040517f08c379a00000000000000000000000000000000000000000000000000000000081526004016109a0906118ed565b60405180910390fd5b5b600360008154809291906109bd90611595565b919050555060006040518060a00160405280600354815260200188815260200187815260200186815260200185151581525090506109fb8184610d4a565b600260009054906101000a900473ffffffffffffffffffffffffffffffffffffffff1673ffffffffffffffffffffffffffffffffffffffff16639b95bc1a336040518263ffffffff1660e01b8152600401610a569190611241565b600060405180830381600087803b158015610a7057600080fd5b505af1158015610a84573d6000803e3d6000fd5b5050505050505050505050565b610a99610e73565b600460008381526020019081526020016000206040518060a001604052908160008201548152602001600182018054610ad19061160c565b80601f0160208091040260200160405190810160405280929190818152602001828054610afd9061160c565b8015610b4a5780601f10610b1f57610100808354040283529160200191610b4a565b820191906000526020600020905b815481529060010190602001808311610b2d57829003601f168201915b50505050508152602001600282018054610b639061160c565b80601f0160208091040260200160405190810160405280929190818152602001828054610b8f9061160c565b8015610bdc5780601f10610bb157610100808354040283529160200191610bdc565b820191906000526020600020905b815481529060010190602001808311610bbf57829003601f168201915b50505050508152602001600382018054610bf59061160c565b80601f0160208091040260200160405190810160405280929190818152602001828054610c219061160c565b8015610c6e5780601f10610c4357610100808354040283529160200191610c6e565b820191906000526020600020905b815481529060010190602001808311610c5157829003601f168201915b505050505081526020016004820160009054906101000a900460ff1615151515815250509050919050565b806005600084815260200190815260200160002060006101000a81548173ffffffffffffffffffffffffffffffffffffffff021916908373ffffffffffffffffffffffffffffffffffffffff160217905550818173ffffffffffffffffffffffffffffffffffffffff163373ffffffffffffffffffffffffffffffffffffffff167f8930ac7bcb101f94c05b13845098ae74383bfb9e348e73061b730040945cbb8260405160405180910390a45050565b816004600084600001518152602001908152602001600020600082015181600001556020820151816001019081610d819190611ab9565b506040820151816002019081610d979190611ab9565b506060820151816003019081610dad9190611ab9565b5060808201518160040160006101000a81548160ff02191690831515021790555090505080600560008460000151815260200190815260200160002060006101000a81548173ffffffffffffffffffffffffffffffffffffffff021916908373ffffffffffffffffffffffffffffffffffffffff16021790555081600001518173ffffffffffffffffffffffffffffffffffffffff167f30385c845b448a36257a6a1716e6ad2e1bc2cbe333cde1e69fe849ad6511adfe60405160405180910390a35050565b6040518060a00160405280600081526020016060815260200160608152602001606081526020016000151581525090565b6000604051905090565b600080fd5b600080fd5b600073ffffffffffffffffffffffffffffffffffffffff82169050919050565b6000610ee382610eb8565b9050919050565b610ef381610ed8565b8114610efe57600080fd5b50565b600081359050610f1081610eea565b92915050565b600060208284031215610f2c57610f2b610eae565b5b6000610f3a84828501610f01565b91505092915050565b600081519050919050565b600082825260208201905092915050565b6000819050602082019050919050565b6000819050919050565b610f8281610f6f565b82525050565b600081519050919050565b600082825260208201905092915050565b60005b83811015610fc2578082015181840152602081019050610fa7565b60008484015250505050565b6000601f19601f8301169050919050565b6000610fea82610f88565b610ff48185610f93565b9350611004818560208601610fa4565b61100d81610fce565b840191505092915050565b60008115159050919050565b61102d81611018565b82525050565b600060a08301600083015161104b6000860182610f79565b50602083015184820360208601526110638282610fdf565b9150506040830151848203604086015261107d8282610fdf565b915050606083015184820360608601526110978282610fdf565b91505060808301516110ac6080860182611024565b508091505092915050565b60006110c38383611033565b905092915050565b6000602082019050919050565b60006110e382610f43565b6110ed8185610f4e565b9350836020820285016110ff85610f5f565b8060005b8581101561113b578484038952815161111c85826110b7565b9450611127836110cb565b925060208a01995050600181019050611103565b50829750879550505050505092915050565b6000602082019050818103600083015261116781846110d8565b905092915050565b61117881610f6f565b811461118357600080fd5b50565b6000813590506111958161116f565b92915050565b6000602082840312156111b1576111b0610eae565b5b60006111bf84828501611186565b91505092915050565b6111d181611018565b82525050565b60006020820190506111ec60008301846111c8565b92915050565b6000806040838503121561120957611208610eae565b5b600061121785828601611186565b925050602061122885828601610f01565b9150509250929050565b61123b81610ed8565b82525050565b60006020820190506112566000830184611232565b92915050565b600080fd5b600080fd5b7f4e487b7100000000000000000000000000000000000000000000000000000000600052604160045260246000fd5b61129e82610fce565b810181811067ffffffffffffffff821117156112bd576112bc611266565b5b80604052505050565b60006112d0610ea4565b90506112dc8282611295565b919050565b600067ffffffffffffffff8211156112fc576112fb611266565b5b61130582610fce565b9050602081019050919050565b82818337600083830152505050565b600061133461132f846112e1565b6112c6565b9050828152602081018484840111156113505761134f611261565b5b61135b848285611312565b509392505050565b600082601f8301126113785761137761125c565b5b8135611388848260208601611321565b91505092915050565b61139a81611018565b81146113a557600080fd5b50565b6000813590506113b781611391565b92915050565b600080600080600060a086880312156113d9576113d8610eae565b5b600086013567ffffffffffffffff8111156113f7576113f6610eb3565b5b61140388828901611363565b955050602086013567ffffffffffffffff81111561142457611423610eb3565b5b61143088828901611363565b945050604086013567ffffffffffffffff81111561145157611450610eb3565b5b61145d88828901611363565b935050606061146e888289016113a8565b925050608061147f88828901610f01565b9150509295509295909350565b600060a0830160008301516114a46000860182610f79565b50602083015184820360208601526114bc8282610fdf565b915050604083015184820360408601526114d68282610fdf565b915050606083015184820360608601526114f08282610fdf565b91505060808301516115056080860182611024565b508091505092915050565b6000602082019050818103600083015261152a818461148c565b905092915050565b7f4e487b7100000000000000000000000000000000000000000000000000000000600052601160045260246000fd5b600061156c82610f6f565b915061157783610f6f565b925082820190508082111561158f5761158e611532565b5b92915050565b60006115a082610f6f565b91507fffffffffffffffffffffffffffffffffffffffffffffffffffffffffffffffff82036115d2576115d1611532565b5b600182019050919050565b7f4e487b7100000000000000000000000000000000000000000000000000000000600052602260045260246000fd5b6000600282049050600182168061162457607f821691505b602082108103611637576116366115dd565b5b50919050565b7f4e487b7100000000000000000000000000000000000000000000000000000000600052603260045260246000fd5b600082825260208201905092915050565b7f696e76616c696420746f6b656e20696421000000000000000000000000000000600082015250565b60006116b360118361166c565b91506116be8261167d565b602082019050919050565b600060208201905081810360008301526116e2816116a6565b9050919050565b7f77726f6e67206f776e6572206f662074686520746f6b656e2100000000000000600082015250565b600061171f60198361166c565b915061172a826116e9565b602082019050919050565b6000602082019050818103600083015261174e81611712565b9050919050565b60008151905061176481611391565b92915050565b6000602082840312156117805761177f610eae565b5b600061178e84828501611755565b91505092915050565b6000815190506117a68161116f565b92915050565b6000602082840312156117c2576117c1610eae565b5b60006117d084828501611797565b91505092915050565b60006117e482610f6f565b91506117ef83610f6f565b92508282026117fd81610f6f565b9150828204841483151761181457611813611532565b5b5092915050565b7f4e487b7100000000000000000000000000000000000000000000000000000000600052601260045260246000fd5b600061185582610f6f565b915061186083610f6f565b9250826118705761186f61181b565b5b828204905092915050565b7f6e6f7420656e6f75676820737562736372697074696f6e7320746f206d696e7460008201527f2100000000000000000000000000000000000000000000000000000000000000602082015250565b60006118d760218361166c565b91506118e28261187b565b604082019050919050565b60006020820190508181036000830152611906816118ca565b9050919050565b60008190508160005260206000209050919050565b60006020601f8301049050919050565b600082821b905092915050565b60006008830261196f7fffffffffffffffffffffffffffffffffffffffffffffffffffffffffffffffff82611932565b6119798683611932565b95508019841693508086168417925050509392505050565b6000819050919050565b60006119b66119b16119ac84610f6f565b611991565b610f6f565b9050919050565b6000819050919050565b6119d08361199b565b6119e46119dc826119bd565b84845461193f565b825550505050565b600090565b6119f96119ec565b611a048184846119c7565b505050565b5b81811015611a2857611a1d6000826119f1565b600181019050611a0a565b5050565b601f821115611a6d57611a3e8161190d565b611a4784611922565b81016020851015611a56578190505b611a6a611a6285611922565b830182611a09565b50505b505050565b600082821c905092915050565b6000611a9060001984600802611a72565b1980831691505092915050565b6000611aa98383611a7f565b9150826002028217905092915050565b611ac282610f88565b67ffffffffffffffff811115611adb57611ada611266565b5b611ae5825461160c565b611af0828285611a2c565b600060209050601f831160018114611b235760008415611b11578287015190505b611b1b8582611a9d565b865550611b83565b601f198416611b318661190d565b60005b82811015611b5957848901518255600182019150602085019450602081019050611b34565b86831015611b765784890151611b72601f891682611a7f565b8355505b6001600288020188555050505b50505050505056fea26469706673582212203630b5092ef172f039902d3c0ae8e42bcf18ccbcc0a591153976c4147c17f59264736f6c63430008180033",
  "linkReferences": {},
  "deployedLinkReferences": {}
}