{
  "_format": "hh-sol-artifact-1",
  "contractName": "Subscribers",
  "sourceName": "contracts/Subscriptions.sol",
  "abi": [
    {
      "inputs": [
        {
          "internalType": "address",
          "name": "_uniqueUsers",
          "type": "address"
        }
      ],
      "stateMutability": "nonpayable",
      "type": "constructor"
    },
    {
      "anonymous": false,
      "inputs": [
        {
          "indexed": true,
          "internalType": "address",
          "name": "from_",
          "type": "address"
        },
        {
          "indexed": true,
          "internalType": "address",
          "name": "to_",
          "type": "address"
        }
      ],
      "name": "Sub",
      "type": "event"
    },
    {
      "anonymous": false,
      "inputs": [
        {
          "indexed": true,
          "internalType": "address",
          "name": "from_",
          "type": "address"
        },
        {
          "indexed": true,
          "internalType": "address",
          "name": "to_",
          "type": "address"
        }
      ],
      "name": "UnSub",
      "type": "event"
    },
    {
      "inputs": [
        {
          "internalType": "address",
          "name": "target_",
          "type": "address"
        }
      ],
      "name": "getSubscribersAmount",
      "outputs": [
        {
          "internalType": "uint256",
          "name": "",
          "type": "uint256"
        }
      ],
      "stateMutability": "view",
      "type": "function"
    },
    {
      "inputs": [
        {
          "internalType": "address",
          "name": "to_",
          "type": "address"
        }
      ],
      "name": "isAlreadySubscriber",
      "outputs": [
        {
          "internalType": "bool",
          "name": "",
          "type": "bool"
        }
      ],
      "stateMutability": "view",
      "type": "function"
    },
    {
      "inputs": [
        {
          "internalType": "address",
          "name": "from_",
          "type": "address"
        },
        {
          "internalType": "address",
          "name": "to_",
          "type": "address"
        }
      ],
      "name": "isAlreadySubscriber",
      "outputs": [
        {
          "internalType": "bool",
          "name": "",
          "type": "bool"
        }
      ],
      "stateMutability": "view",
      "type": "function"
    },
    {
      "inputs": [
        {
          "internalType": "address",
          "name": "to_",
          "type": "address"
        }
      ],
      "name": "subscribeOn",
      "outputs": [],
      "stateMutability": "nonpayable",
      "type": "function"
    },
    {
      "inputs": [
        {
          "internalType": "address",
          "name": "from_",
          "type": "address"
        }
      ],
      "name": "unsubscribeFrom",
      "outputs": [],
      "stateMutability": "nonpayable",
      "type": "function"
    }
  ],
  "bytecode": "0x608060405234801561001057600080fd5b50604051610d1e380380610d1e833981810160405281019061003291906100dc565b80600260006101000a81548173ffffffffffffffffffffffffffffffffffffffff021916908373ffffffffffffffffffffffffffffffffffffffff16021790555050610109565b600080fd5b600073ffffffffffffffffffffffffffffffffffffffff82169050919050565b60006100a98261007e565b9050919050565b6100b98161009e565b81146100c457600080fd5b50565b6000815190506100d6816100b0565b92915050565b6000602082840312156100f2576100f1610079565b5b6000610100848285016100c7565b91505092915050565b610c06806101186000396000f3fe608060405234801561001057600080fd5b50600436106100575760003560e01c80631b679ba71461005c5780632ec44f97146100785780639cb18b9e146100945780639ea6e8b5146100c4578063bb33134b146100f4575b600080fd5b61007660048036038101906100719190610822565b610124565b005b610092600480360381019061008d9190610822565b6101e8565b005b6100ae60048036038101906100a99190610822565b6102ad565b6040516100bb9190610868565b60405180910390f35b6100de60048036038101906100d99190610822565b6102f5565b6040516100eb919061089e565b60405180910390f35b61010e600480360381019061010991906108b9565b610388565b60405161011b919061089e565b60405180910390f35b8073ffffffffffffffffffffffffffffffffffffffff163373ffffffffffffffffffffffffffffffffffffffff1603610192576040517f08c379a00000000000000000000000000000000000000000000000000000000081526004016101899061097c565b60405180910390fd5b61019c3382610388565b6101db576040517f08c379a00000000000000000000000000000000000000000000000000000000081526004016101d2906109e8565b60405180910390fd5b6101e5338261041c565b50565b8073ffffffffffffffffffffffffffffffffffffffff163373ffffffffffffffffffffffffffffffffffffffff1603610256576040517f08c379a000000000000000000000000000000000000000000000000000000000815260040161024d90610a7a565b60405180910390fd5b6102603382610388565b156102a0576040517f08c379a000000000000000000000000000000000000000000000000000000000815260040161029790610ae6565b60405180910390fd5b6102aa3382610561565b50565b60008060008373ffffffffffffffffffffffffffffffffffffffff1673ffffffffffffffffffffffffffffffffffffffff168152602001908152602001600020549050919050565b6000600160003373ffffffffffffffffffffffffffffffffffffffff1673ffffffffffffffffffffffffffffffffffffffff16815260200190815260200160002060008373ffffffffffffffffffffffffffffffffffffffff1673ffffffffffffffffffffffffffffffffffffffff16815260200190815260200160002060009054906101000a900460ff169050919050565b6000600160008473ffffffffffffffffffffffffffffffffffffffff1673ffffffffffffffffffffffffffffffffffffffff16815260200190815260200160002060008373ffffffffffffffffffffffffffffffffffffffff1673ffffffffffffffffffffffffffffffffffffffff16815260200190815260200160002060009054906101000a900460ff16905092915050565b6000600160008473ffffffffffffffffffffffffffffffffffffffff1673ffffffffffffffffffffffffffffffffffffffff16815260200190815260200160002060008373ffffffffffffffffffffffffffffffffffffffff1673ffffffffffffffffffffffffffffffffffffffff16815260200190815260200160002060006101000a81548160ff0219169083151502179055506000808273ffffffffffffffffffffffffffffffffffffffff1673ffffffffffffffffffffffffffffffffffffffff168152602001908152602001600020600081546104fc90610b35565b919050819055508073ffffffffffffffffffffffffffffffffffffffff168273ffffffffffffffffffffffffffffffffffffffff167fe87b26780293baedd8c4bfcf432c45b3b8d36a1bf93bc024b058f22a448fb91e60405160405180910390a35050565b60018060008473ffffffffffffffffffffffffffffffffffffffff1673ffffffffffffffffffffffffffffffffffffffff16815260200190815260200160002060008373ffffffffffffffffffffffffffffffffffffffff1673ffffffffffffffffffffffffffffffffffffffff16815260200190815260200160002060006101000a81548160ff0219169083151502179055506000808273ffffffffffffffffffffffffffffffffffffffff1673ffffffffffffffffffffffffffffffffffffffff1681526020019081526020016000206000815461064090610b5e565b91905081905550600260009054906101000a900473ffffffffffffffffffffffffffffffffffffffff1673ffffffffffffffffffffffffffffffffffffffff16639b95bc1a836040518263ffffffff1660e01b81526004016106a29190610bb5565b600060405180830381600087803b1580156106bc57600080fd5b505af11580156106d0573d6000803e3d6000fd5b50505050600260009054906101000a900473ffffffffffffffffffffffffffffffffffffffff1673ffffffffffffffffffffffffffffffffffffffff16639b95bc1a826040518263ffffffff1660e01b815260040161072f9190610bb5565b600060405180830381600087803b15801561074957600080fd5b505af115801561075d573d6000803e3d6000fd5b505050508073ffffffffffffffffffffffffffffffffffffffff168273ffffffffffffffffffffffffffffffffffffffff167ffc07197e64943ed776e716f8d43b1b4eafb52f2364f649e80cdb3968952250d860405160405180910390a35050565b600080fd5b600073ffffffffffffffffffffffffffffffffffffffff82169050919050565b60006107ef826107c4565b9050919050565b6107ff816107e4565b811461080a57600080fd5b50565b60008135905061081c816107f6565b92915050565b600060208284031215610838576108376107bf565b5b60006108468482850161080d565b91505092915050565b6000819050919050565b6108628161084f565b82525050565b600060208201905061087d6000830184610859565b92915050565b60008115159050919050565b61089881610883565b82525050565b60006020820190506108b3600083018461088f565b92915050565b600080604083850312156108d0576108cf6107bf565b5b60006108de8582860161080d565b92505060206108ef8582860161080d565b9150509250929050565b600082825260208201905092915050565b7f596f752063616e277420756e7375627363726962652066726f6d20796f75727360008201527f656c662100000000000000000000000000000000000000000000000000000000602082015250565b60006109666024836108f9565b91506109718261090a565b604082019050919050565b6000602082019050818103600083015261099581610959565b9050919050565b7f596f7527726520686176656e2774206265656e20737562736372696265640000600082015250565b60006109d2601e836108f9565b91506109dd8261099c565b602082019050919050565b60006020820190508181036000830152610a01816109c5565b9050919050565b7f596f752063616e27742073756273637269626564206f6e20796f757273656c6660008201527f2100000000000000000000000000000000000000000000000000000000000000602082015250565b6000610a646021836108f9565b9150610a6f82610a08565b604082019050919050565b60006020820190508181036000830152610a9381610a57565b9050919050565b7f596f7527726520616c7265616479207375627363726962656400000000000000600082015250565b6000610ad06019836108f9565b9150610adb82610a9a565b602082019050919050565b60006020820190508181036000830152610aff81610ac3565b9050919050565b7f4e487b7100000000000000000000000000000000000000000000000000000000600052601160045260246000fd5b6000610b408261084f565b915060008203610b5357610b52610b06565b5b600182039050919050565b6000610b698261084f565b91507fffffffffffffffffffffffffffffffffffffffffffffffffffffffffffffffff8203610b9b57610b9a610b06565b5b600182019050919050565b610baf816107e4565b82525050565b6000602082019050610bca6000830184610ba6565b9291505056fea26469706673582212206e39bd0588aef5a79903484e8d89fd5879cc1d69fc12a432b8f64c6f7098369764736f6c63430008180033",
  "linkReferences": {},
  "deployedLinkReferences": {}
}