{
  "_format": "hh-sol-artifact-1",
  "contractName": "UniqueUsers",
  "sourceName": "contracts/UniqueUsers.sol",
  "abi": [
    {
      "inputs": [],
      "stateMutability": "nonpayable",
      "type": "constructor"
    },
    {
      "anonymous": false,
      "inputs": [
        {
          "indexed": false,
          "internalType": "address",
          "name": "user_",
          "type": "address"
        }
      ],
      "name": "newUniqueUser",
      "type": "event"
    },
    {
      "inputs": [
        {
          "internalType": "address",
          "name": "user_",
          "type": "address"
        }
      ],
      "name": "addCount",
      "outputs": [],
      "stateMutability": "nonpayable",
      "type": "function"
    },
    {
      "inputs": [
        {
          "internalType": "address[]",
          "name": "contracts_",
          "type": "address[]"
        }
      ],
      "name": "addTrustContracts",
      "outputs": [],
      "stateMutability": "nonpayable",
      "type": "function"
    },
    {
      "inputs": [
        {
          "internalType": "address",
          "name": "candidate_",
          "type": "address"
        }
      ],
      "name": "canCall",
      "outputs": [
        {
          "internalType": "bool",
          "name": "",
          "type": "bool"
        }
      ],
      "stateMutability": "view",
      "type": "function"
    },
    {
      "inputs": [],
      "name": "getUniqueUsersCnt",
      "outputs": [
        {
          "internalType": "uint256",
          "name": "",
          "type": "uint256"
        }
      ],
      "stateMutability": "view",
      "type": "function"
    }
  ],
  "bytecode": "0x60806040526000805534801561001457600080fd5b5033600360006101000a81548173ffffffffffffffffffffffffffffffffffffffff021916908373ffffffffffffffffffffffffffffffffffffffff1602179055506108f3806100656000396000f3fe608060405234801561001057600080fd5b506004361061004c5760003560e01c80639b95bc1a14610051578063cb6e7a891461006d578063e178bcdc1461009d578063fea43fd1146100bb575b600080fd5b61006b600480360381019061006691906104a5565b6100d7565b005b610087600480360381019061008291906104a5565b6102b5565b60405161009491906104ed565b60405180910390f35b6100a561030b565b6040516100b29190610521565b60405180910390f35b6100d560048036038101906100d09190610695565b610314565b005b33600260008273ffffffffffffffffffffffffffffffffffffffff1673ffffffffffffffffffffffffffffffffffffffff16815260200190815260200160002060009054906101000a900460ff168061017d5750600360009054906101000a900473ffffffffffffffffffffffffffffffffffffffff1673ffffffffffffffffffffffffffffffffffffffff168173ffffffffffffffffffffffffffffffffffffffff16145b6101bc576040517f08c379a00000000000000000000000000000000000000000000000000000000081526004016101b390610761565b60405180910390fd5b600160008373ffffffffffffffffffffffffffffffffffffffff1673ffffffffffffffffffffffffffffffffffffffff16815260200190815260200160002060009054906101000a900460ff1661025a57600080815461021b906107b0565b919050819055507ff9ed1c2ce7a9e9b061c3946d642fd71f0833dd9e83e4ee883e0c5147404d8a35826040516102519190610807565b60405180910390a15b60018060008473ffffffffffffffffffffffffffffffffffffffff1673ffffffffffffffffffffffffffffffffffffffff16815260200190815260200160002060006101000a81548160ff0219169083151502179055505050565b6000600260008373ffffffffffffffffffffffffffffffffffffffff1673ffffffffffffffffffffffffffffffffffffffff16815260200190815260200160002060009054906101000a900460ff169050919050565b60008054905090565b338073ffffffffffffffffffffffffffffffffffffffff16600360009054906101000a900473ffffffffffffffffffffffffffffffffffffffff1673ffffffffffffffffffffffffffffffffffffffff16146103a5576040517f08c379a000000000000000000000000000000000000000000000000000000000815260040161039c9061086e565b60405180910390fd5b60005b825181101561042e576001600260008584815181106103ca576103c961088e565b5b602002602001015173ffffffffffffffffffffffffffffffffffffffff1673ffffffffffffffffffffffffffffffffffffffff16815260200190815260200160002060006101000a81548160ff0219169083151502179055508060010190506103a8565b505050565b6000604051905090565b600080fd5b600080fd5b600073ffffffffffffffffffffffffffffffffffffffff82169050919050565b600061047282610447565b9050919050565b61048281610467565b811461048d57600080fd5b50565b60008135905061049f81610479565b92915050565b6000602082840312156104bb576104ba61043d565b5b60006104c984828501610490565b91505092915050565b60008115159050919050565b6104e7816104d2565b82525050565b600060208201905061050260008301846104de565b92915050565b6000819050919050565b61051b81610508565b82525050565b60006020820190506105366000830184610512565b92915050565b600080fd5b6000601f19601f8301169050919050565b7f4e487b7100000000000000000000000000000000000000000000000000000000600052604160045260246000fd5b61058a82610541565b810181811067ffffffffffffffff821117156105a9576105a8610552565b5b80604052505050565b60006105bc610433565b90506105c88282610581565b919050565b600067ffffffffffffffff8211156105e8576105e7610552565b5b602082029050602081019050919050565b600080fd5b600061061161060c846105cd565b6105b2565b90508083825260208201905060208402830185811115610634576106336105f9565b5b835b8181101561065d57806106498882610490565b845260208401935050602081019050610636565b5050509392505050565b600082601f83011261067c5761067b61053c565b5b813561068c8482602086016105fe565b91505092915050565b6000602082840312156106ab576106aa61043d565b5b600082013567ffffffffffffffff8111156106c9576106c8610442565b5b6106d584828501610667565b91505092915050565b600082825260208201905092915050565b7f6e6f7420616c6c6f7765642063616c6c2066756e6374696f6e2066726f6d207460008201527f6861742061646472657373210000000000000000000000000000000000000000602082015250565b600061074b602c836106de565b9150610756826106ef565b604082019050919050565b6000602082019050818103600083015261077a8161073e565b9050919050565b7f4e487b7100000000000000000000000000000000000000000000000000000000600052601160045260246000fd5b60006107bb82610508565b91507fffffffffffffffffffffffffffffffffffffffffffffffffffffffffffffffff82036107ed576107ec610781565b5b600182019050919050565b61080181610467565b82525050565b600060208201905061081c60008301846107f8565b92915050565b7f77726f6e67206f776e6572206f662074686520636f6e74726163742100000000600082015250565b6000610858601c836106de565b915061086382610822565b602082019050919050565b600060208201905081810360008301526108878161084b565b9050919050565b7f4e487b7100000000000000000000000000000000000000000000000000000000600052603260045260246000fdfea2646970667358221220f11fef54492916abaab50e58fdc01663d072c4ce703cae9bf381a03b961f769964736f6c63430008180033",
  "linkReferences": {},
  "deployedLinkReferences": {}
}