{
  "_format": "hh-sol-artifact-1",
  "contractName": "Usernames",
  "sourceName": "contracts/Usernames.sol",
  "abi": [
    {
      "inputs": [],
      "name": "delUsername",
      "outputs": [],
      "stateMutability": "nonpayable",
      "type": "function"
    },
    {
      "inputs": [
        {
          "internalType": "string",
          "name": "username_",
          "type": "string"
        }
      ],
      "name": "getOwner",
      "outputs": [
        {
          "internalType": "address",
          "name": "",
          "type": "address"
        }
      ],
      "stateMutability": "view",
      "type": "function"
    },
    {
      "inputs": [],
      "name": "getUsername",
      "outputs": [
        {
          "internalType": "string",
          "name": "",
          "type": "string"
        }
      ],
      "stateMutability": "view",
      "type": "function"
    },
    {
      "inputs": [
        {
          "internalType": "address",
          "name": "user_",
          "type": "address"
        }
      ],
      "name": "getUsername",
      "outputs": [
        {
          "internalType": "string",
          "name": "",
          "type": "string"
        }
      ],
      "stateMutability": "view",
      "type": "function"
    },
    {
      "inputs": [],
      "name": "hasUsername",
      "outputs": [
        {
          "internalType": "bool",
          "name": "",
          "type": "bool"
        }
      ],
      "stateMutability": "view",
      "type": "function"
    },
    {
      "inputs": [
        {
          "internalType": "address",
          "name": "user_",
          "type": "address"
        }
      ],
      "name": "hasUsername",
      "outputs": [
        {
          "internalType": "bool",
          "name": "",
          "type": "bool"
        }
      ],
      "stateMutability": "view",
      "type": "function"
    },
    {
      "inputs": [
        {
          "internalType": "string",
          "name": "name_",
          "type": "string"
        }
      ],
      "name": "setUsername",
      "outputs": [],
      "stateMutability": "nonpayable",
      "type": "function"
    }
  ],
  "bytecode": "0x608060405234801561001057600080fd5b50611126806100206000396000f3fe608060405234801561001057600080fd5b506004361061007d5760003560e01c8063a5c2fb821161005b578063a5c2fb82146100ee578063ce43c0321461011e578063ed59313a1461014e578063f7fe16cb1461016a5761007d565b80634aaf4a12146100825780635fb788e0146100b2578063681f3e6d146100d0575b600080fd5b61009c60048036038101906100979190610a02565b610174565b6040516100a99190610a8c565b60405180910390f35b6100ba6101bc565b6040516100c79190610ac2565b60405180910390f35b6100d8610294565b6040516100e59190610b5c565b60405180910390f35b61010860048036038101906101039190610baa565b610362565b6040516101159190610ac2565b60405180910390f35b61013860048036038101906101339190610baa565b61043c565b6040516101459190610b5c565b60405180910390f35b61016860048036038101906101639190610a02565b61050c565b005b610172610721565b005b60006001826040516101869190610c13565b908152602001604051809103902060009054906101000a900473ffffffffffffffffffffffffffffffffffffffff169050919050565b6000806000803373ffffffffffffffffffffffffffffffffffffffff1673ffffffffffffffffffffffffffffffffffffffff168152602001908152602001600020805461020890610c59565b80601f016020809104026020016040519081016040528092919081815260200182805461023490610c59565b80156102815780601f1061025657610100808354040283529160200191610281565b820191906000526020600020905b81548152906001019060200180831161026457829003601f168201915b5050505050905060008151141591505090565b60606000803373ffffffffffffffffffffffffffffffffffffffff1673ffffffffffffffffffffffffffffffffffffffff16815260200190815260200160002080546102df90610c59565b80601f016020809104026020016040519081016040528092919081815260200182805461030b90610c59565b80156103585780601f1061032d57610100808354040283529160200191610358565b820191906000526020600020905b81548152906001019060200180831161033b57829003601f168201915b5050505050905090565b6000806000808473ffffffffffffffffffffffffffffffffffffffff1673ffffffffffffffffffffffffffffffffffffffff16815260200190815260200160002080546103ae90610c59565b80601f01602080910402602001604051908101604052809291908181526020018280546103da90610c59565b80156104275780601f106103fc57610100808354040283529160200191610427565b820191906000526020600020905b81548152906001019060200180831161040a57829003601f168201915b50505050509050600081511415915050919050565b60606000808373ffffffffffffffffffffffffffffffffffffffff1673ffffffffffffffffffffffffffffffffffffffff168152602001908152602001600020805461048790610c59565b80601f01602080910402602001604051908101604052809291908181526020018280546104b390610c59565b80156105005780601f106104d557610100808354040283529160200191610500565b820191906000526020600020905b8154815290600101906020018083116104e357829003601f168201915b50505050509050919050565b80600073ffffffffffffffffffffffffffffffffffffffff1661052e82610174565b73ffffffffffffffffffffffffffffffffffffffff1614610584576040517f08c379a000000000000000000000000000000000000000000000000000000000815260040161057b90610cd6565b60405180910390fd5b8160008151036105c9576040517f08c379a00000000000000000000000000000000000000000000000000000000081526004016105c090610d42565b60405180910390fd5b6105d233610362565b1561067357600060016000803373ffffffffffffffffffffffffffffffffffffffff1673ffffffffffffffffffffffffffffffffffffffff1681526020019081526020016000206040516106269190610dfa565b908152602001604051809103902060006101000a81548173ffffffffffffffffffffffffffffffffffffffff021916908373ffffffffffffffffffffffffffffffffffffffff1602179055505b826000803373ffffffffffffffffffffffffffffffffffffffff1673ffffffffffffffffffffffffffffffffffffffff16815260200190815260200160002090816106be9190610fb2565b50336001846040516106d09190610c13565b908152602001604051809103902060006101000a81548173ffffffffffffffffffffffffffffffffffffffff021916908373ffffffffffffffffffffffffffffffffffffffff160217905550505050565b3360008060008373ffffffffffffffffffffffffffffffffffffffff1673ffffffffffffffffffffffffffffffffffffffff168152602001908152602001600020805461076d90610c59565b9050036107af576040517f08c379a00000000000000000000000000000000000000000000000000000000081526004016107a6906110d0565b60405180910390fd5b600060016000803373ffffffffffffffffffffffffffffffffffffffff1673ffffffffffffffffffffffffffffffffffffffff1681526020019081526020016000206040516107fe9190610dfa565b908152602001604051809103902060006101000a81548173ffffffffffffffffffffffffffffffffffffffff021916908373ffffffffffffffffffffffffffffffffffffffff160217905550604051806020016040528060008152506000803373ffffffffffffffffffffffffffffffffffffffff1673ffffffffffffffffffffffffffffffffffffffff16815260200190815260200160002090816108a49190610fb2565b5050565b6000604051905090565b600080fd5b600080fd5b600080fd5b600080fd5b6000601f19601f8301169050919050565b7f4e487b7100000000000000000000000000000000000000000000000000000000600052604160045260246000fd5b61090f826108c6565b810181811067ffffffffffffffff8211171561092e5761092d6108d7565b5b80604052505050565b60006109416108a8565b905061094d8282610906565b919050565b600067ffffffffffffffff82111561096d5761096c6108d7565b5b610976826108c6565b9050602081019050919050565b82818337600083830152505050565b60006109a56109a084610952565b610937565b9050828152602081018484840111156109c1576109c06108c1565b5b6109cc848285610983565b509392505050565b600082601f8301126109e9576109e86108bc565b5b81356109f9848260208601610992565b91505092915050565b600060208284031215610a1857610a176108b2565b5b600082013567ffffffffffffffff811115610a3657610a356108b7565b5b610a42848285016109d4565b91505092915050565b600073ffffffffffffffffffffffffffffffffffffffff82169050919050565b6000610a7682610a4b565b9050919050565b610a8681610a6b565b82525050565b6000602082019050610aa16000830184610a7d565b92915050565b60008115159050919050565b610abc81610aa7565b82525050565b6000602082019050610ad76000830184610ab3565b92915050565b600081519050919050565b600082825260208201905092915050565b60005b83811015610b17578082015181840152602081019050610afc565b60008484015250505050565b6000610b2e82610add565b610b388185610ae8565b9350610b48818560208601610af9565b610b51816108c6565b840191505092915050565b60006020820190508181036000830152610b768184610b23565b905092915050565b610b8781610a6b565b8114610b9257600080fd5b50565b600081359050610ba481610b7e565b92915050565b600060208284031215610bc057610bbf6108b2565b5b6000610bce84828501610b95565b91505092915050565b600081905092915050565b6000610bed82610add565b610bf78185610bd7565b9350610c07818560208601610af9565b80840191505092915050565b6000610c1f8284610be2565b915081905092915050565b7f4e487b7100000000000000000000000000000000000000000000000000000000600052602260045260246000fd5b60006002820490506001821680610c7157607f821691505b602082108103610c8457610c83610c2a565b5b50919050565b7f757365726e616d6520697320616c72656164792074616b656e21000000000000600082015250565b6000610cc0601a83610ae8565b9150610ccb82610c8a565b602082019050919050565b60006020820190508181036000830152610cef81610cb3565b9050919050565b7f656d70747920757365726e616d65206973206e6f742076616c69642100000000600082015250565b6000610d2c601c83610ae8565b9150610d3782610cf6565b602082019050919050565b60006020820190508181036000830152610d5b81610d1f565b9050919050565b60008190508160005260206000209050919050565b60008154610d8481610c59565b610d8e8186610bd7565b94506001821660008114610da95760018114610dbe57610df1565b60ff1983168652811515820286019350610df1565b610dc785610d62565b60005b83811015610de957815481890152600182019150602081019050610dca565b838801955050505b50505092915050565b6000610e068284610d77565b915081905092915050565b60006020601f8301049050919050565b600082821b905092915050565b600060088302610e5e7fffffffffffffffffffffffffffffffffffffffffffffffffffffffffffffffff82610e21565b610e688683610e21565b95508019841693508086168417925050509392505050565b6000819050919050565b6000819050919050565b6000610eaf610eaa610ea584610e80565b610e8a565b610e80565b9050919050565b6000819050919050565b610ec983610e94565b610edd610ed582610eb6565b848454610e2e565b825550505050565b600090565b610ef2610ee5565b610efd818484610ec0565b505050565b5b81811015610f2157610f16600082610eea565b600181019050610f03565b5050565b601f821115610f6657610f3781610d62565b610f4084610e11565b81016020851015610f4f578190505b610f63610f5b85610e11565b830182610f02565b50505b505050565b600082821c905092915050565b6000610f8960001984600802610f6b565b1980831691505092915050565b6000610fa28383610f78565b9150826002028217905092915050565b610fbb82610add565b67ffffffffffffffff811115610fd457610fd36108d7565b5b610fde8254610c59565b610fe9828285610f25565b600060209050601f83116001811461101c576000841561100a578287015190505b6110148582610f96565b86555061107c565b601f19841661102a86610d62565b60005b828110156110525784890151825560018201915060208501945060208101905061102d565b8683101561106f578489015161106b601f891682610f78565b8355505b6001600288020188555050505b505050505050565b7f796f7520646f6e2774206861766520757365726e616d65210000000000000000600082015250565b60006110ba601883610ae8565b91506110c582611084565b602082019050919050565b600060208201905081810360008301526110e9816110ad565b905091905056fea264697066735822122081fade23f72ad4e92d2c7e4b6bada70de4cbfaf8ab03b33a6535c63d339214d964736f6c63430008180033",
  "linkReferences": {},
  "deployedLinkReferences": {}
}