{
  "_format": "hh-sol-artifact-1",
  "contractName": "SuperUsers",
  "sourceName": "contracts/SuperUsers.sol",
  "abi": [
    {
      "inputs": [
        {
          "internalType": "address",
          "name": "_uniqueUsers",
          "type": "address"
        },
        {
          "internalType": "address",
          "name": "_subscriptions",
          "type": "address"
        },
        {
          "internalType": "address[]",
          "name": "super_users",
          "type": "address[]"
        }
      ],
      "stateMutability": "nonpayable",
      "type": "constructor"
    },
    {
      "anonymous": false,
      "inputs": [
        {
          "indexed": true,
          "internalType": "address",
          "name": "user_",
          "type": "address"
        }
      ],
      "name": "BecomeSuperUser",
      "type": "event"
    },
    {
      "anonymous": false,
      "inputs": [
        {
          "indexed": true,
          "internalType": "address",
          "name": "user_",
          "type": "address"
        }
      ],
      "name": "RemoveSuperUser",
      "type": "event"
    },
    {
      "anonymous": false,
      "inputs": [
        {
          "components": [
            {
              "internalType": "address",
              "name": "user",
              "type": "address"
            },
            {
              "internalType": "uint256",
              "name": "participated_users",
              "type": "uint256"
            },
            {
              "internalType": "uint256",
              "name": "againstVotes",
              "type": "uint256"
            },
            {
              "internalType": "uint256",
              "name": "forVotes",
              "type": "uint256"
            },
            {
              "internalType": "uint256",
              "name": "votingStarts",
              "type": "uint256"
            },
            {
              "internalType": "bool",
              "name": "executed",
              "type": "bool"
            },
            {
              "internalType": "bool",
              "name": "is_new_super_added",
              "type": "bool"
            }
          ],
          "indexed": true,
          "internalType": "struct SuperUsers.Voting",
          "name": "voting_",
          "type": "tuple"
        },
        {
          "indexed": true,
          "internalType": "bool",
          "name": "result",
          "type": "bool"
        }
      ],
      "name": "VotingEnded",
      "type": "event"
    },
    {
      "inputs": [
        {
          "internalType": "address",
          "name": "user",
          "type": "address"
        }
      ],
      "name": "isSuperUser",
      "outputs": [
        {
          "internalType": "bool",
          "name": "",
          "type": "bool"
        }
      ],
      "stateMutability": "view",
      "type": "function"
    },
    {
      "inputs": [
        {
          "internalType": "address",
          "name": "user",
          "type": "address"
        }
      ],
      "name": "setVotingForNewSuperUser",
      "outputs": [],
      "stateMutability": "nonpayable",
      "type": "function"
    },
    {
      "inputs": [
        {
          "internalType": "address",
          "name": "user",
          "type": "address"
        }
      ],
      "name": "setVotingForTakingAwaySuperUserRights",
      "outputs": [],
      "stateMutability": "nonpayable",
      "type": "function"
    },
    {
      "inputs": [
        {
          "internalType": "uint256",
          "name": "voting_number",
          "type": "uint256"
        }
      ],
      "name": "summarizeVoting",
      "outputs": [],
      "stateMutability": "nonpayable",
      "type": "function"
    },
    {
      "inputs": [
        {
          "internalType": "uint256",
          "name": "voting_number",
          "type": "uint256"
        }
      ],
      "name": "voteAgainst",
      "outputs": [],
      "stateMutability": "nonpayable",
      "type": "function"
    },
    {
      "inputs": [
        {
          "internalType": "uint256",
          "name": "voting_number",
          "type": "uint256"
        }
      ],
      "name": "voteFor",
      "outputs": [],
      "stateMutability": "nonpayable",
      "type": "function"
    },
    {
      "inputs": [],
      "name": "voting_duration",
      "outputs": [
        {
          "internalType": "uint256",
          "name": "",
          "type": "uint256"
        }
      ],
      "stateMutability": "view",
      "type": "function"
    }
  ],
  "bytecode": "0x608060405260006005553480156200001657600080fd5b50604051620022a1380380620022a183398181016040528101906200003c919062000343565b826000806101000a81548173ffffffffffffffffffffffffffffffffffffffff021916908373ffffffffffffffffffffffffffffffffffffffff16021790555081600160006101000a81548173ffffffffffffffffffffffffffffffffffffffff021916908373ffffffffffffffffffffffffffffffffffffffff16021790555060005b81518110156200014b57600160026000848481518110620000e657620000e5620003be565b5b602002602001015173ffffffffffffffffffffffffffffffffffffffff1673ffffffffffffffffffffffffffffffffffffffff16815260200190815260200160002060006101000a81548160ff021916908315150217905550806001019050620000c0565b50505050620003ed565b6000604051905090565b600080fd5b600080fd5b600073ffffffffffffffffffffffffffffffffffffffff82169050919050565b6000620001968262000169565b9050919050565b620001a88162000189565b8114620001b457600080fd5b50565b600081519050620001c8816200019d565b92915050565b600080fd5b6000601f19601f8301169050919050565b7f4e487b7100000000000000000000000000000000000000000000000000000000600052604160045260246000fd5b6200021e82620001d3565b810181811067ffffffffffffffff8211171562000240576200023f620001e4565b5b80604052505050565b60006200025562000155565b905062000263828262000213565b919050565b600067ffffffffffffffff821115620002865762000285620001e4565b5b602082029050602081019050919050565b600080fd5b6000620002b3620002ad8462000268565b62000249565b90508083825260208201905060208402830185811115620002d957620002d862000297565b5b835b81811015620003065780620002f18882620001b7565b845260208401935050602081019050620002db565b5050509392505050565b600082601f830112620003285762000327620001ce565b5b81516200033a8482602086016200029c565b91505092915050565b6000806000606084860312156200035f576200035e6200015f565b5b60006200036f86828701620001b7565b93505060206200038286828701620001b7565b925050604084015167ffffffffffffffff811115620003a657620003a562000164565b5b620003b48682870162000310565b9150509250925092565b7f4e487b7100000000000000000000000000000000000000000000000000000000600052603260045260246000fd5b611ea480620003fd6000396000f3fe608060405234801561001057600080fd5b506004361061007d5760003560e01c80638ca038b11161005b5780638ca038b1146100d85780639d976df5146100f4578063ae72b1a614610110578063cd784d1b1461012c5761007d565b80633153cebc14610082578063750e443a146100a057806386a50535146100bc575b600080fd5b61008a61015c565b60405161009791906115a6565b60405180910390f35b6100ba60048036038101906100b591906115f2565b610163565b005b6100d660048036038101906100d191906115f2565b61059c565b005b6100f260048036038101906100ed919061167d565b6109d5565b005b61010e600480360381019061010991906115f2565b610d1a565b005b61012a6004803603810190610125919061167d565b6111f2565b005b6101466004803603810190610141919061167d565b611537565b60405161015391906116c5565b60405180910390f35b6202a30081565b8060008111801561017657506005548111155b6101b5576040517f08c379a00000000000000000000000000000000000000000000000000000000081526004016101ac9061173d565b60405180910390fd5b81426202a30060036000848152602001908152602001600020600401546101dc919061178c565b1161021c576040517f08c379a00000000000000000000000000000000000000000000000000000000081526004016102139061180c565b60405180910390fd5b82600015156004600083815260200190815260200160002060003373ffffffffffffffffffffffffffffffffffffffff1673ffffffffffffffffffffffffffffffffffffffff16815260200190815260200160002060009054906101000a900460ff161515146102c1576040517f08c379a00000000000000000000000000000000000000000000000000000000081526004016102b890611878565b60405180910390fd5b336102cb81611537565b6103af576005600160009054906101000a900473ffffffffffffffffffffffffffffffffffffffff1673ffffffffffffffffffffffffffffffffffffffff16639cb18b9e836040518263ffffffff1660e01b815260040161032c91906118a7565b602060405180830381865afa158015610349573d6000803e3d6000fd5b505050506040513d601f19601f8201168201806040525081019061036d91906118d7565b10156103ae576040517f08c379a00000000000000000000000000000000000000000000000000000000081526004016103a590611976565b60405180910390fd5b5b60016004600087815260200190815260200160002060003373ffffffffffffffffffffffffffffffffffffffff1673ffffffffffffffffffffffffffffffffffffffff16815260200190815260200160002060006101000a81548160ff021916908315150217905550600160009054906101000a900473ffffffffffffffffffffffffffffffffffffffff1673ffffffffffffffffffffffffffffffffffffffff16639cb18b9e336040518263ffffffff1660e01b815260040161047391906118a7565b602060405180830381865afa158015610490573d6000803e3d6000fd5b505050506040513d601f19601f820116820180604052508101906104b491906118d7565b6003600087815260200190815260200160002060020160008282546104d9919061178c565b92505081905550600360008681526020019081526020016000206001016000815461050390611996565b9190508190555060008054906101000a900473ffffffffffffffffffffffffffffffffffffffff1673ffffffffffffffffffffffffffffffffffffffff16639b95bc1a336040518263ffffffff1660e01b815260040161056391906118a7565b600060405180830381600087803b15801561057d57600080fd5b505af1158015610591573d6000803e3d6000fd5b505050505050505050565b806000811180156105af57506005548111155b6105ee576040517f08c379a00000000000000000000000000000000000000000000000000000000081526004016105e59061173d565b60405180910390fd5b81426202a3006003600084815260200190815260200160002060040154610615919061178c565b11610655576040517f08c379a000000000000000000000000000000000000000000000000000000000815260040161064c9061180c565b60405180910390fd5b82600015156004600083815260200190815260200160002060003373ffffffffffffffffffffffffffffffffffffffff1673ffffffffffffffffffffffffffffffffffffffff16815260200190815260200160002060009054906101000a900460ff161515146106fa576040517f08c379a00000000000000000000000000000000000000000000000000000000081526004016106f190611878565b60405180910390fd5b3361070481611537565b6107e8576005600160009054906101000a900473ffffffffffffffffffffffffffffffffffffffff1673ffffffffffffffffffffffffffffffffffffffff16639cb18b9e836040518263ffffffff1660e01b815260040161076591906118a7565b602060405180830381865afa158015610782573d6000803e3d6000fd5b505050506040513d601f19601f820116820180604052508101906107a691906118d7565b10156107e7576040517f08c379a00000000000000000000000000000000000000000000000000000000081526004016107de90611976565b60405180910390fd5b5b60016004600087815260200190815260200160002060003373ffffffffffffffffffffffffffffffffffffffff1673ffffffffffffffffffffffffffffffffffffffff16815260200190815260200160002060006101000a81548160ff021916908315150217905550600160009054906101000a900473ffffffffffffffffffffffffffffffffffffffff1673ffffffffffffffffffffffffffffffffffffffff16639cb18b9e336040518263ffffffff1660e01b81526004016108ac91906118a7565b602060405180830381865afa1580156108c9573d6000803e3d6000fd5b505050506040513d601f19601f820116820180604052508101906108ed91906118d7565b600360008781526020019081526020016000206003016000828254610912919061178c565b92505081905550600360008681526020019081526020016000206001016000815461093c90611996565b9190508190555060008054906101000a900473ffffffffffffffffffffffffffffffffffffffff1673ffffffffffffffffffffffffffffffffffffffff16639b95bc1a336040518263ffffffff1660e01b815260040161099c91906118a7565b600060405180830381600087803b1580156109b657600080fd5b505af11580156109ca573d6000803e3d6000fd5b505050505050505050565b336109df81611537565b610ac3576005600160009054906101000a900473ffffffffffffffffffffffffffffffffffffffff1673ffffffffffffffffffffffffffffffffffffffff16639cb18b9e836040518263ffffffff1660e01b8152600401610a4091906118a7565b602060405180830381865afa158015610a5d573d6000803e3d6000fd5b505050506040513d601f19601f82011682018060405250810190610a8191906118d7565b1015610ac2576040517f08c379a0000000000000000000000000000000000000000000000000000000008152600401610ab990611976565b60405180910390fd5b5b60001515600260008473ffffffffffffffffffffffffffffffffffffffff1673ffffffffffffffffffffffffffffffffffffffff16815260200190815260200160002060009054906101000a900460ff16151514610b56576040517f08c379a0000000000000000000000000000000000000000000000000000000008152600401610b4d90611a50565b60405180910390fd5b600560008154610b6590611996565b9190508190555060006040518060e001604052808473ffffffffffffffffffffffffffffffffffffffff1681526020016000815260200160008152602001600081526020014281526020016000151581526020016001151581525090508060036000600554815260200190815260200160002060008201518160000160006101000a81548173ffffffffffffffffffffffffffffffffffffffff021916908373ffffffffffffffffffffffffffffffffffffffff1602179055506020820151816001015560408201518160020155606082015181600301556080820151816004015560a08201518160050160006101000a81548160ff02191690831515021790555060c08201518160050160016101000a81548160ff02191690831515021790555090505060008054906101000a900473ffffffffffffffffffffffffffffffffffffffff1673ffffffffffffffffffffffffffffffffffffffff16639b95bc1a846040518263ffffffff1660e01b8152600401610ce391906118a7565b600060405180830381600087803b158015610cfd57600080fd5b505af1158015610d11573d6000803e3d6000fd5b50505050505050565b80600081118015610d2d57506005548111155b610d6c576040517f08c379a0000000000000000000000000000000000000000000000000000000008152600401610d639061173d565b60405180910390fd5b600015156003600084815260200190815260200160002060050160009054906101000a900460ff16151514610dd6576040517f08c379a0000000000000000000000000000000000000000000000000000000008152600401610dcd90611abc565b60405180910390fd5b426202a3006003600085815260200190815260200160002060040154610dfc919061178c565b10610e3c576040517f08c379a0000000000000000000000000000000000000000000000000000000008152600401610e3390611b28565b60405180910390fd5b60016003600084815260200190815260200160002060050160006101000a81548160ff02191690831515021790555060036000838152602001908152602001600020600201546003600084815260200190815260200160002060030154118015610f625750600f60008054906101000a900473ffffffffffffffffffffffffffffffffffffffff1673ffffffffffffffffffffffffffffffffffffffff1663e178bcdc6040518163ffffffff1660e01b8152600401602060405180830381865afa158015610f0e573d6000803e3d6000fd5b505050506040513d601f19601f82011682018060405250810190610f3291906118d7565b60646003600086815260200190815260200160002060010154610f559190611b48565b610f5f9190611bb9565b10155b15611195576003600083815260200190815260200160002060050160019054906101000a900460ff16600260006003600086815260200190815260200160002060000160009054906101000a900473ffffffffffffffffffffffffffffffffffffffff1673ffffffffffffffffffffffffffffffffffffffff1673ffffffffffffffffffffffffffffffffffffffff16815260200190815260200160002060006101000a81548160ff021916908315150217905550600115156003600084815260200190815260200160002060405161103b9190611de7565b60405180910390207fe988b1a9a799b28556ddbc966b1373fda2a1dc03b6893b654ce357ae08e6e0f360405160405180910390a36003600083815260200190815260200160002060050160019054906101000a900460ff1615611116576003600083815260200190815260200160002060000160009054906101000a900473ffffffffffffffffffffffffffffffffffffffff1673ffffffffffffffffffffffffffffffffffffffff167f260a88fa07e8ea4260d30faac411b1c748c1ce1e10b53d1834e3558fd9db1cdb60405160405180910390a2611190565b6003600083815260200190815260200160002060000160009054906101000a900473ffffffffffffffffffffffffffffffffffffffff1673ffffffffffffffffffffffffffffffffffffffff167f795e20008b4227cdad3bf8ece44251566d801f0d1090c5e2b2339d10ad96d5b960405160405180910390a25b6111ee565b60001515600360008481526020019081526020016000206040516111b99190611de7565b60405180910390207fe988b1a9a799b28556ddbc966b1373fda2a1dc03b6893b654ce357ae08e6e0f360405160405180910390a35b5050565b336111fc81611537565b6112e0576005600160009054906101000a900473ffffffffffffffffffffffffffffffffffffffff1673ffffffffffffffffffffffffffffffffffffffff16639cb18b9e836040518263ffffffff1660e01b815260040161125d91906118a7565b602060405180830381865afa15801561127a573d6000803e3d6000fd5b505050506040513d601f19601f8201168201806040525081019061129e91906118d7565b10156112df576040517f08c379a00000000000000000000000000000000000000000000000000000000081526004016112d690611976565b60405180910390fd5b5b60011515600260008473ffffffffffffffffffffffffffffffffffffffff1673ffffffffffffffffffffffffffffffffffffffff16815260200190815260200160002060009054906101000a900460ff16151514611373576040517f08c379a000000000000000000000000000000000000000000000000000000000815260040161136a90611e4e565b60405180910390fd5b60056000815461138290611996565b9190508190555060006040518060e001604052808473ffffffffffffffffffffffffffffffffffffffff1681526020016000815260200160008152602001600081526020014281526020016000151581526020016000151581525090508060036000600554815260200190815260200160002060008201518160000160006101000a81548173ffffffffffffffffffffffffffffffffffffffff021916908373ffffffffffffffffffffffffffffffffffffffff1602179055506020820151816001015560408201518160020155606082015181600301556080820151816004015560a08201518160050160006101000a81548160ff02191690831515021790555060c08201518160050160016101000a81548160ff02191690831515021790555090505060008054906101000a900473ffffffffffffffffffffffffffffffffffffffff1673ffffffffffffffffffffffffffffffffffffffff16639b95bc1a846040518263ffffffff1660e01b815260040161150091906118a7565b600060405180830381600087803b15801561151a57600080fd5b505af115801561152e573d6000803e3d6000fd5b50505050505050565b6000600260008373ffffffffffffffffffffffffffffffffffffffff1673ffffffffffffffffffffffffffffffffffffffff16815260200190815260200160002060009054906101000a900460ff169050919050565b6000819050919050565b6115a08161158d565b82525050565b60006020820190506115bb6000830184611597565b92915050565b600080fd5b6115cf8161158d565b81146115da57600080fd5b50565b6000813590506115ec816115c6565b92915050565b600060208284031215611608576116076115c1565b5b6000611616848285016115dd565b91505092915050565b600073ffffffffffffffffffffffffffffffffffffffff82169050919050565b600061164a8261161f565b9050919050565b61165a8161163f565b811461166557600080fd5b50565b60008135905061167781611651565b92915050565b600060208284031215611693576116926115c1565b5b60006116a184828501611668565b91505092915050565b60008115159050919050565b6116bf816116aa565b82525050565b60006020820190506116da60008301846116b6565b92915050565b600082825260208201905092915050565b7f496e76616c696420766f74696e67206e756d6265720000000000000000000000600082015250565b60006117276015836116e0565b9150611732826116f1565b602082019050919050565b600060208201905081810360008301526117568161171a565b9050919050565b7f4e487b7100000000000000000000000000000000000000000000000000000000600052601160045260246000fd5b60006117978261158d565b91506117a28361158d565b92508282019050808211156117ba576117b961175d565b5b92915050565b7f5468697320766f74696e67277320616c72656164792066696e69736865640000600082015250565b60006117f6601e836116e0565b9150611801826117c0565b602082019050919050565b60006020820190508181036000830152611825816117e9565b9050919050565b7f596f7527766520616c726561647920766f746564000000000000000000000000600082015250565b60006118626014836116e0565b915061186d8261182c565b602082019050919050565b6000602082019050818103600083015261189181611855565b9050919050565b6118a18161163f565b82525050565b60006020820190506118bc6000830184611898565b92915050565b6000815190506118d1816115c6565b92915050565b6000602082840312156118ed576118ec6115c1565b5b60006118fb848285016118c2565b91505092915050565b7f596f7520646f6e2774206861766520656e6f756768742073756273637269626560008201527f7273000000000000000000000000000000000000000000000000000000000000602082015250565b60006119606022836116e0565b915061196b82611904565b604082019050919050565b6000602082019050818103600083015261198f81611953565b9050919050565b60006119a18261158d565b91507fffffffffffffffffffffffffffffffffffffffffffffffffffffffffffffffff82036119d3576119d261175d565b5b600182019050919050565b7f546869732061646472657373277320616c72656164792061207375706572207560008201527f7365720000000000000000000000000000000000000000000000000000000000602082015250565b6000611a3a6023836116e0565b9150611a45826119de565b604082019050919050565b60006020820190508181036000830152611a6981611a2d565b9050919050565b7f566f74696e67277320656e646564000000000000000000000000000000000000600082015250565b6000611aa6600e836116e0565b9150611ab182611a70565b602082019050919050565b60006020820190508181036000830152611ad581611a99565b9050919050565b7f566f74696e67206861736e27742066696e697368656400000000000000000000600082015250565b6000611b126016836116e0565b9150611b1d82611adc565b602082019050919050565b60006020820190508181036000830152611b4181611b05565b9050919050565b6000611b538261158d565b9150611b5e8361158d565b9250828202611b6c8161158d565b91508282048414831517611b8357611b8261175d565b5b5092915050565b7f4e487b7100000000000000000000000000000000000000000000000000000000600052601260045260246000fd5b6000611bc48261158d565b9150611bcf8361158d565b925082611bdf57611bde611b8a565b5b828204905092915050565b60008160001c9050919050565b600073ffffffffffffffffffffffffffffffffffffffff82169050919050565b6000611c2a611c2583611bea565b611bf7565b9050919050565b611c3a8161163f565b82525050565b6000611c4c8383611c31565b60208301905092915050565b6000819050919050565b6000611c75611c7083611bea565b611c58565b9050919050565b611c858161158d565b82525050565b6000611c978383611c7c565b60208301905092915050565b600060ff82169050919050565b6000611cc3611cbe83611bea565b611ca3565b9050919050565b611cd3816116aa565b82525050565b6000611ce58383611cca565b60208301905092915050565b60008160081c9050919050565b6000611d11611d0c83611cf1565b611ca3565b9050919050565b600082016000808301549050611d2d81611c17565b611d378582611c40565b94505060018301549050611d4a81611c62565b611d548582611c8b565b94505060028301549050611d6781611c62565b611d718582611c8b565b94505060038301549050611d8481611c62565b611d8e8582611c8b565b94505060048301549050611da181611c62565b611dab8582611c8b565b94505060058301549050611dbe81611cb0565b611dc88582611cd9565b945050611dd481611cfe565b611dde8582611cd9565b94505050505050565b6000611df38284611d18565b60e08201915081905092915050565b7f5468697320616464726573732773206e6f742061207375706572207573657200600082015250565b6000611e38601f836116e0565b9150611e4382611e02565b602082019050919050565b60006020820190508181036000830152611e6781611e2b565b905091905056fea2646970667358221220e80e70cabc7e8bf380e2553135a0837f6bd15de9b940a6d04be038b95aa9ef9964736f6c63430008180033",
  "linkReferences": {},
  "deployedLinkReferences": {}
}